:100000000A168A11B62A0A128A15FC200A128A11C7
:10001000F4010314F40D01300A168A11D3220A12D6
:100020008A117E30F4008030F5000A168A11CC2344
:100030000A128A110800831203134008F0004108D5
:10004000F1004208F2004730C3004308F3000A16EB
:100050008A11BB240A128A1183120313C81F312884
:1000600032285B284008F0004108F1004208F20005
:100070000030F3000030F4000030F5000A128A1559
:1000800003210A128A1103184628472851280030F4
:1000900083120313C0008030C100BF30C200C228E9
:1000A000C228003083120313C0000030C1000030AA
:1000B000C200C228C2280030480215300319470286
:1000C000031C632864286528C2284008F000410802
:1000D000F1004208F2000A128A1576220A128A11E9
:1000E000730883120313A3007208A2007108A10011
:1000F0007008A0000A168A1152250A128A1183126A
:1001000003132008C4002108C5002208C6004008C7
:10011000F0004108F1004208F2004408F3004508ED
:10012000F4004608F5000A128A1503210A128A1102
:1001300003189B289C28B928003083120313B300AE
:100140008030B400BF30B5004408B6004508B700A1
:100150004608B8000A128A1124230A128A1183124F
:1001600003133308C0003408C1003508C200C22898
:10017000C228831203134408C0004508C100460882
:10018000C200C228080083160313A30183120313BD
:10019000660865046404031DCE28CF28F4280030C7
:1001A000F0000030F1000030F2006708F30068084A
:1001B000F4006908F5000A128A1503210A128A114F
:1001C000031CE328E428EA28213083120313EE00FD
:1001D0000030EF00003083120313E4000030E5002C
:1001E0000030E600E929E929690868046704031D6D
:1001F000FA28FB2803290030E4008030E5003F3076
:10020000E600E929E9296408F0006508F1006608BC
:10021000F2000030F3000030F4000030F5000A1264
:100220008A1503210A128A11031817291829792916
:10023000831203136708F0006808F1006908F200F0
:100240000A128A1576220A128A117308831603137A
:10025000A7007208A6007108A5007008A40027086E
:10026000FB002608FA002508F9002408F8000A1601
:100270008A119A230A128A118312031369087A06D3
:10028000031D482968087906031D48296708780670
:1002900003194B294C2958292130EE000030EF007A
:1002A0000030E4000030E5000030E600E929E929EB
:1002B000831603132408013983120313EA006A0822
:1002C00083160313A300831203136408F800650860
:1002D000F9006608FA000A168A114B220A128A11DE
:1002E000780883120313E4007908E5007A08E60031
:1002F0007929831203136408D4006508D5006608C1
:10030000D6000A128A154C250A128A118312031389
:10031000540883160313A000831203135508831691
:100320000313A10083120313560883160313A200BC
:10033000831203136708A3006808A4006908A500D6
:1003400083160313200883120313A60083160313D6
:10035000210883120313A7008316031322088312B4
:100360000313A8000A128A151F260A128A11831283
:1003700003132308DA002408DB002508DC000A1236
:100380008A116A240A128A11831203135A08E4009C
:100390005B08E5005C08E600831603132308031DD1
:1003A000D229E929831203136408F8006508F900CB
:1003B0006608FA000A168A114B220A128A11780876
:1003C00083120313E4007908E5007A08E600E929BE
:1003D000E9290800831603132808F0002908F10012
:1003E0002A08F2000A128A1576220A128A11710866
:1003F00083160313B201B2077008B101B1072808D0
:1004000083120313B3008316031329088312031303
:10041000B400831603132A0883120313B50083164E
:1004200003133208FC01FC073108FB01FB070A1625
:100430008A1111230A128A117B08F8007C08F9003E
:100440007D08FA000A168A114B220A128A117808CE
:1004500083120313B6007908B7007A08B8000A12AD
:100460008A1124230A128A11831203133308831674
:100470000313B50083120313340883160313B60065
:1004800083120313350883160313B700320883124F
:100490000313A101A1078316031331088312031369
:1004A000A001A007831603132B0883120313EB008C
:1004B0006B08A2000030A3000030A4000A128A15C5
:1004C000EE210A128A1183120313210883160313E3
:1004D000B401B40783120313200883160313B30176
:1004E000B3072D082C040319762A772A232B2E30E4
:1004F00083120313EB008316031333082B078312B5
:100500000313EC006C0884006B08831380008316CF
:1005100003132D08FC01FC072C08FB01FB070A163E
:100520008A1111230A128A117B0883120313E70030
:100530007C08E8007D08E9000030E4002030E50098
:100540004130E6000A128A11C3200A128A1183126E
:100550000313640883160313AE00831203136508A4
:1005600083160313AF008312031366088316031365
:10057000B000350883120313A30083160313360853
:1005800083120313A4008316031337088312031383
:10059000A500831603132E0883120313A6008316E7
:1005A00003132F0883120313A700831603133008C5
:1005B00083120313A8000A128A151F260A128A1131
:1005C00083120313230883160313B5008312031346
:1005D000240883160313B600831203132508831619
:1005E0000313B7003508F0003608F1003708F200B1
:1005F0000A128A1576220A128A11710883120313CD
:10060000A101A1077008A001A007831603133308F6
:100610002B07013E83120313EB006B08A200831625
:1006200003132D0883120313A401A40783160313D5
:100630002C0883120313A301A3070A128A15EE21C3
:100640000A128A11232B0800831203133308B900FE
:100650003408BA003508BB0003103A0D3B0DBC004E
:100660003C08BF003608B9003708BA003808BB009C
:1006700003103A0D3B0DBC003C08BE003F08031DB3
:10068000422B532B3E083F020318472B482B5B2B72
:100690003F03FF3A3E07B90019303902031C512BC2
:1006A000522B5B2B532B3608B3003708B4003808A5
:1006B000B500692C692C3E08031D5F2B6F2B3F088A
:1006C0003E020318642B652B702B3E03FF3A3F0755
:1006D000B90019303902031C6E2B6F2B702B692C5B
:1006E0000630B9003908BD00B51F772B782B792B60
:1006F000BD17B81F7C2B7D2B7E2B3D17B417FF3009
:10070000B305FF30B4050030B505B717FF30B605A7
:10071000FF30B7050030B8053E083F020318912BA3
:10072000922BC32B932B01300310B60DB70DB80DD0
:10073000FF3E031D942B0130BE023E083F06031905
:10074000A22BA32BBB2B0130BD023D080739031D93
:10075000AA2BAB2B932BBB2BBB2BBB2B013003103A
:10076000B50CB40CB30CFF3E031DAF2B0130B90028
:100770003908BF07BB2B3F083E06031DC02BC12B0A
:10078000AE2BFA2BFA2B3F083E020318C82BC92BBD
:10079000FA2BCA2B01300310B30DB40DB50DFF3E7B
:1007A000031DCB2B0130BF023E083F060319D92B96
:1007B000DA2BF22B0130BD023D080739031DE12B76
:1007C000E22BCA2BF22BF22BF22B01300310B80CC8
:1007D000B70CB60CFF3E031DE62B0130B9003908FB
:1007E000BE07F22B3F083E06031DF72BF82BE52B27
:1007F000FA2BFA2BBD1FFD2BFE2B0F2CFF30B3065F
:10080000FF30B406FF30B5060130B30700300318DF
:100810000130B407003003180130B5070F2C3D1F1D
:10082000122C132C242CFF30B606FF30B706FF30F5
:10083000B8060130B607003003180130B7070030A2
:1008400003180130B807242CBD013308B60734085B
:1008500003110318340A03192E2CB70735080311A6
:100860000318350A0319352CB807B81F382C392C52
:100870004D2CFF30B606FF30B706FF30B80601300A
:10088000B607003003180130B707003003180130F5
:10089000B807BD010314BD0D4D2C3608F000370814
:1008A000F1003808F2003F08B9003908F3003D08AC
:1008B000BA003A08F4000A168A1185270A128A112A
:1008C000700883120313B3007108B4007208B500F6
:1008D000692C0800831203135C085B045A04031D8F
:1008E000722C732C7B2C0030DA008030DB003F3020
:1008F000DC00D02DD02D7230F0003130F1004430CA
:10090000F2005A08F3005B08F4005C08F5000A12D4
:100910008A1503210A128A1103188F2C902CA72CF8
:10092000223083120313EE000030EF009E2C0030C3
:10093000DA008030DB007F30DC00D02DFF30DA00C1
:100940007F30DB007F30DC00D02DD02DD02D831206
:1009500003135A08F0005B08F1005C08F20049300C
:10096000F3003A30F400C430F5000A128A1503216E
:100970000A128A110318BD2CBE2CCC2C22308312F3
:100980000313EE000030EF000030DA000030DB002F
:100990000030DC00D02DD02D831203135A08F00054
:1009A0005B08F1005C08F2000030F3000030F40056
:1009B0000030F5000A128A1503210A128A1100304C
:1009C000031C013083120313DD005D08E30063089C
:1009D000031DEB2CFF2C5A08F8005B08F9005C089B
:1009E000FA000A168A114B220A128A117808831219
:1009F0000313DA007908DB007A08DC00FF2CAA3048
:100A0000A300B830A4003F30A5005A08A6005B0838
:100A1000A7005C08A8000A128A151F260A128A116C
:100A2000831203132308DA002408DB002508DC0006
:100A30005A08C0005B08C1005C08C2000A128A1193
:100A40001B200A128A11831203134008F000410888
:100A5000F1004208F2000A128A1576220A128A115F
:100A6000710883120313E201E2077008E101E10754
:100A70006208FC01FC076108FB01FB070A168A11EA
:100A800011230A128A117B0883120313C0007C0809
:100A9000C1007D08C2005A08C3005B08C4005C089E
:100AA000C5000A168A11F2220A128A118312031350
:100AB0004008DA004108DB004208DC005A08CA009E
:100AC0005B08CB005C08CC000130DD005D08CD0088
:100AD0000930CE000030CF000A128A156F210A12A9
:100AE0008A11831203134A08C0004B08C1004C0846
:100AF000C2006208C401C4076108C301C3070A1227
:100B00008A15C2230A128A11831203134008DA00DD
:100B10004108DB004208DC006308031D902DD02D46
:100B2000992D992D0030DE008030DF007F30E0000D
:100B30009F2DFF30DE007F30DF007F30E0005C085B
:100B40006006031DA92D5B085F06031DA92D5A0829
:100B50005E06031DAC2DAD2DB52D0030DA00003042
:100B6000DB000030DC00D02DD02D5A08F8005B08E7
:100B7000F9005C08FA000030FB008030FC003F30D8
:100B8000FD000A128A1586240A128A117808831237
:100B90000313DA007908DB007A08DC00D02DD02DB1
:100BA000080083160313BB01BC010A168A11312207
:100BB0000A128A11003A0319DE2DDF2D272E831623
:100BC0000313BD01BE013E08803AFF0080307F0262
:100BD000031DEC2D0C303D02031CEF2DF02DF22DEA
:100BE000212E212E0A168A1131220A128A11003A68
:100BF0000319FB2DFC2D112E0A168A1140220A1210
:100C00008A1183160313B8003D08C73E84003808D4
:100C1000831380000130BD070318BE0A0030BE07F1
:100C2000112E831603133E08803AFF0080307F02A6
:100C3000031D1C2E0C303D02031C1F2E202EF22DF6
:100C4000212E013083160313BB000030BC0001309D
:100C5000831603133B063C04031D2F2E302EFF2F5B
:100C60000A128A15FC200A128A11F40101300A16B0
:100C70008A11D3220A128A11E930F4008030F5007B
:100C80000A168A11CC230A128A11C730F4000030E8
:100C9000F5000A168A11CC230A128A11B530831680
:100CA0000313B8003808F000C7300A168A113B2336
:100CB0000A128A1171087004031D5F2E602E9A2E8D
:100CC0000130831603133F064004031D682E692E6E
:100CD0007A2EF40102300A168A11D3220A128A11DE
:100CE000C230F4008030F5000A168A11CC230A12B3
:100CF0008A117A2E8316031340083F04031D812EA8
:100D0000822E9A2EF40102300A168A11D3220A1278
:100D10008A116D30F4008030F5000A168A11CC2358
:100D20000A128A11013083160313BF000030C0007D
:100D30009A2E9A2E9B3083160313B8003808F000C1
:100D4000C7300A168A113B230A128A1171087004EF
:100D5000031DAB2EAC2EE62E013083160313410685
:100D60004204031DB42EB52EC62EF40102300A161D
:100D70008A11D3220A128A11C230F4008030F500A1
:100D80000A168A11CC230A128A11C62E831603135F
:100D900042084104031DCD2ECE2EE62EF401023072
:100DA0000A168A11D3220A128A113A30F4008030CE
:100DB000F5000A168A11CC230A128A110130831613
:100DC0000313C1000030C200E62EE62EA8308316C1
:100DD0000313B8003808F000C7300A168A113B2305
:100DE0000A128A1171087004031DF72EF82E322F93
:100DF00001308316031343064404031D002F012F03
:100E0000122FF40102300A168A11D3220A128A1113
:100E1000C230F4008030F5000A168A11CC230A1281
:100E20008A11122F8316031344084304031D192F3C
:100E30001A2F322FF40102300A168A11D3220A1215
:100E40008A115C30F4008030F5000A168A11CC2338
:100E50000A128A11013083160313C3000030C40044
:100E6000322F322F8E3083160313B8003808F0006B
:100E7000C7300A168A113B230A128A1171087004BE
:100E8000031D432F442FBE2FF40102300A168A118E
:100E9000D3220A128A114B30F4008030F5000A1672
:100EA0008A11CC230A128A112330F0000030F1009D
:100EB0000A168A11FE230A128A1183160313C5012A
:100EC000C6014608803AFF0080307F02031D6A2F6A
:100ED00003304502031C6D2F6E2F702FBE2FBE2FC7
:100EE0000A128A15FC200A128A110A30F00000301A
:100EF000F1000A168A11FE230A128A1183160313BF
:100F00004508B8003807BF3E840083130008B900C5
:100F1000840A0008BA00013039063A04031D912FF3
:100F2000922F982F0A168A11ED250A128A119E2FE8
:100F30000A168A114C260A128A119E2F0A30F000D6
:100F40000030F1000A168A11FE230A128A110130BC
:100F500083160313C5070318C60A0030C6074608E0
:100F6000803AFF0080307F02031DB82F0330450216
:100F7000031CBB2FBC2F702FBE2FBE2F8316031355
:100F8000BB01BC016430F0000030F1000A168A1188
:100F9000FE230A128A110A128A1103200A128A11E8
:100FA00083160313BD01BE013E08803AFF00803066
:100FB0007F02031DDD2F0C303D02031CE02FE12FCB
:100FC000E32FFF2FFF2F831603133D08C73E840036
:100FD000831380010130BD070318BE0A0030BE072D
:100FE0003E08803AFF0080307F02031DF92F0C304D
:100FF0003D02031CFC2FFD2FE32FFF2FFF2F0800C6
:10100000FF1B0A2883137F1883170008840A03191B
:10101000FF0A080008308A000408840A82070034A6
:10102000003480343F34723431343F34FE3475340C
:101030003E34583463343D3495341D343C34C53427
:10104000AE343A34793421343934943480343734FA
:101050009334A734353456341534343400340034E2
:101060000034003480343F34F034FF34BE34E23492
:10107000A9343E3483347634BE34AE342B343E341B
:101080003C34C334BD34D23413343D347834D33497
:10109000BB3452347534743475346A34613420345A
:1010A000503472346534733465346E34743420349F
:1010B00020340034573465346C3463346F346D3409
:1010C00065342034543465346134633468346534B1
:1010D00072342034003453346834753462346834E4
:1010E00061346D3420345034723465347334653473
:1010F0006E34743420340034523461346A346434CD
:10110000653465347034203450347234653473344B
:1011100065346E3474342034003450346C346134AB
:1011200063346534203479346F3475347234203448
:1011300063346134723464340034343430343034E1
:101140003034323438343634383437343434373455
:10115000343400343434303430343034323438348D
:10116000393438343334343443343434003434345C
:10117000303430343034323438343534433432342B
:10118000433431343834003434343034303430344F
:1011900032343834373444344234463441344134C0
:1011A000003441346C3472346534613464347934DD
:1011B000203444346F346E34653400345334743422
:1011C0007534643465346E3474345F3400342034E0
:1011D000703472346534733465346E34743400346E
:1011E000203461346234733465346E3474340034C2
:1011F000493444343A34003401300A168A118222C8
:101200000A128A150800F21F062907292D29003025
:10121000F6000030F7008030F8007009F90071091D
:10122000FA007209FB00F90A0319FA0A0319FB0A0A
:101230007908F6077A0803187A0F1F292029F7077B
:101240007B0803187B0F25292629F8077608F0006C
:101250007708F1007808F2002D29F51F302931298F
:1012600057290030F6000030F7008030F80073098D
:10127000F9007409FA007509FB00F90A0319FA0A62
:101280000319FB0A7908F6077A0803187A0F492927
:101290004A29F7077B0803187B0F4F295029F807C5
:1012A0007608F3007708F4007808F50057298030B5
:1012B000F2068030F50675087202031D6529740870
:1012C0007102031D652973087002031868296929D2
:1012D0006B2903106E2903146E296E290800033050
:1012E00083120313D0005008F0004E080A168A112A
:1012F0006A220A128A15831203134D0784000A1208
:101300008A150A200A128A15D1000A128A150A20A3
:101310000A128A15D2000A128A150A200A128A15A0
:10132000D300DF290330D0005008F000FF30CE0793
:101330000318CF0AFF30CF074E080A168A116A2217
:101340000A128A15831203134D0784000A128A15A4
:101350000A200A128A15B3000A128A150A200A12F4
:101360008A15B4000A128A150A200A128A15B500D5
:101370005108A3005208A4005308A5004A08A6007B
:101380004B08A7004C08A8000A128A151F260A124B
:101390008A15831203132308B6002408B700250812
:1013A000B8000A128A1124230A128A158312031321
:1013B0003308D1003408D2003508D300DF294F08A4
:1013C0004E04031DE429E5299229E6295108CA00A3
:1013D0005208CB005308CC00ED29080083120313F8
:1013E000A701A8012D2A0A30F0000030F1002108E1
:1013F000F301F3072008F201F2070A168A11AB265F
:101400000A128A157008303E83120313A5002708BC
:101410002207A600260884002508831380000130D7
:10142000A7070318A80A0030A8070A30F000003008
:10143000F1002108F301F3072008F201F2070A1670
:101440008A1111270A128A15710883120313A10148
:10145000A1077008A001A0072D2A21082004031D60
:10146000322A332AF329482A482A303083120313B8
:10147000A50027082207A600260884002508831354
:1014800080000130A7070318A80A0030A807482ADF
:101490002808803AA5002408803A2502031D522A14
:1014A00023082702031C552A562A352A572A831255
:1014B00003132808F101F1072708F001F0072208BB
:1014C0000A168A1105250A128A15831203132708A2
:1014D0002207A50025088400831380012808A101A4
:1014E000A1072708A001A007752A08007008F400CA
:1014F0007108F5007208F6000310750D760DF700FF
:101500007708FD00FD08031D862A872A912A0030EE
:10151000F3000030F2000030F1000030F000192B31
:10152000192B7008F4007108F5007208F6001730E6
:101530000310F60CF50CF40CFF3E031D982A7408FA
:10154000F7007708F800F117FF30F005FF30F105DC
:101550000030F2057008F9007108FA007208FB000B
:10156000FC018E30FD02FD1FB62AB72ADC2A7D0859
:10157000803A8F3E0318BD2ABE2AC92A0030F300E4
:101580000030F2000030F1000030F000192B192B70
:10159000C92A01300310FC0CFB0CFA0CF90CFF3EBD
:1015A000031DCA2A0130F4007408FD07031DD92A5F
:1015B000DA2AC92A002B002B18307D02031CE12AED
:1015C000E22AF92A0030F3000030F2000030F10086
:1015D0000030F000192B192BF92A0130F400031008
:1015E000F90DFA0DFB0DFC0DF40BEF2A0130FD0295
:1015F000F92AFD08031DFD2AFE2AED2A002B002BE7
:101600007808031D042B102BF909FA09FB09FC09C2
:10161000F90A0319FA0A0319FB0A0319FC0A102B29
:101620007C08F3007B08F2007A08F1007908F000EA
:10163000192B080083120313A101F31F202B212B68
:10164000302BF009F109F209F309F00A0319F10A44
:101650000319F20A0319F30AA1010314A10D302B97
:10166000F71F332B342B442BF409F509F609F7093E
:10167000F40A0319F50A0319F60A0319F70A0130E7
:10168000F8007808A106442B0030A5000030A40023
:101690000030A3000030A2007308720471047004CB
:1016A0000319532B542BA82BA0010314A00D662B58
:1016B0000130F8000310F00DF10DF20DF30DF80BF1
:1016C0005A2B0130F8007808A007662BF31F692B0E
:1016D0006A2B582B6C2B6C2B0130F8000310A20DD9
:1016E000A30DA40DA50DF80B6E2B73087702031D37
:1016F000832B72087602031D832B71087502031D6C
:10170000832B70087402031C862B872B972B700881
:10171000F4027108031C710FF5027208031C720FAA
:10172000F6027308031C730FF7022214972B013083
:101730000310F30CF20CF10CF00CFF3E031D982B80
:101740000130A002031DA52BA62B6C2BA82BA82BC8
:101750002108031DAC2BB82BA209A309A409A509D4
:10176000A20A0319A30A0319A40A0319A50AB82B8C
:101770002508F3002408F2002308F1002208F000F5
:10178000C12B080083120313420841044004031DC7
:10179000CA2BCB2BD32B0030C0000030C10000304F
:1017A000C200852C852C42087F39C500C601013056
:1017B000FF000310C50DC60DFF0BD92B4508C3074D
:1017C0000318C40A4608C407410D410D0139C5007C
:1017D000C6014508C3070318C40A4608C407C41F46
:1017E000F22BF32B002C2230EE000030EF00003003
:1017F000C0000030C1000030C200852C852C842C34
:101800004408803AFF0081307F02031D092C00301C
:101810004302031C0C2C0D2C662C22308312031364
:10182000EE000030EF004008F0004108F1004208EF
:10183000F2000030F3000030F4000030F5000A122E
:101840008A1503210A128A150318272C282C5A2CD2
:10185000332C332C003083120313C7008030C800B0
:101860007F30C9003C2CFF3083120313C7007F3048
:10187000C8007F30C9003C2C4708F8004808F90030
:101880004908FA000A168A114B220A128A157808AA
:1018900083120313C0007908C1007A08C200852CA6
:1018A000852C842C5A2C0030C0008030C1007F3041
:1018B000C200852CFF3083120313C0007F30C100AB
:1018C0007F30C200852C852C852C842C8312031339
:1018D0004408C6004308C5000130FF00460DC60C91
:1018E000C50CFF0B6E2C4208450680394506C20028
:1018F00043080139C500C50CC50C410845067F39B0
:101900004506C100842C842C852C08007B0883129A
:101910000313A0007C08A1007D08A2000310210D84
:10192000220DA3002308A800A808031D982C992CB9
:10193000A12C0030F8000030F9000030FA004B2DE7
:101940004B2D7808A0007908A1007A08A2000310A6
:10195000210D220DA3002308A900A908031DB12C05
:10196000B22CBA2C0030F8000030F9000030FA0038
:101970004B2D4B2D0030A5000030A6000030A700F5
:1019800089302907A0002008A8027B08A0007C0855
:10199000A1007D08A20010300310A20CA10CA00C25
:1019A000FF3E031DCC2C2008A3002308A9007808C3
:1019B000A0007908A1007A08A20010300310A20C40
:1019C000A10CA00CFF3E031DDE2C2008A300230861
:1019D000A9068030A0002008A905FC17FF30FB05F0
:1019E000FF30FC050030FD05F917FF30F805FF302A
:1019F000F9050030FA051830A0002008A400002DD9
:101A000001300310A50DA60DA70DFF3E031D012DEE
:101A10007A087D02031D122D79087C02031D122D08
:101A200078087B02031C152D162D222D7808FB0249
:101A30007908031C790FFC027A08031C7A0AFD025C
:101A40002514222D01300310FB0DFC0DFD0DFF3E72
:101A5000031D232D0130A402031D2F2D302D002D39
:101A6000312D2508F0002608F1002708F20028088B
:101A7000A0002008F3002908A1002108F4000A169C
:101A80008A1185270A128A157008F8007108F90072
:101A90007208FA004B2D0800831203135408F0005B
:101AA0005508F1005608F2000030F3000030F40051
:101AB0000030F5000A128A1503210A128A1503184C
:101AC000622D632D712D213083120313EE0000303F
:101AD000EF000030D4000030D5000030D6001E2EBC
:101AE0001E2E83120313560855045404031D792D2A
:101AF0007A2D862D2230EE000030EF000030D40029
:101B00000030D5000030D6001E2E1E2E0030B3004F
:101B10008030B400BF30B5000030A3000030A40016
:101B20004030A5005830D7005708F3005408F000A3
:101B30005508F1005608F2000A168A11BB240A1251
:101B40008A15700883120313A6007108A700720893
:101B5000A8000A128A151F260A128A158312031377
:101B60002308B6002408B7002508B8000A128A1115
:101B700024230A128A15831203133308D40034086D
:101B8000D5003508D600FF30D8070318D90AFF3032
:101B9000D9075408CA005508CB005608CC001F309E
:101BA000D7005708CD000830CE000030CF000A1211
:101BB0008A156F210A128A15831203134A08D4006A
:101BC0004B08D5004C08D6005408B3005508B400A3
:101BD0005608B5007230A3003130A4003F30A50094
:101BE0005908FC01FC075808FB01FB070A168A117B
:101BF00011230A128A157B0883120313A6007C089E
:101C0000A7007D08A8000A128A151F260A128A1545
:101C1000831203132308B6002408B7002508B80070
:101C20000A128A1124230A128A1583120313330815
:101C3000D4003408D5003508D6001E2E08008312C3
:101C400003132308A9002408AA002508AB000310E9
:101C50002A0D2B0DAC002C08AD00AD08031D312E54
:101C6000322E3A2E0030A3000030A4000030A50030
:101C70000C2F0C2F2608A9002708AA002808AB0063
:101C800003102A0D2B0DAC002C08B200B208031D66
:101C90004A2E4B2E532E0030A3000030A4000030FB
:101CA000A5000C2F0C2F32087B3EA9002908AD0798
:101CB0002308A9002408AA002508AB00103003104F
:101CC000AB0CAA0CA90CFF3E031D5F2E2908AC002B
:101CD0002C08B2002608A9002708AA002808AB0093
:101CE00010300310AB0CAA0CA90CFF3E031D712E83
:101CF0002908AC002C08B2068030A9002908B205DA
:101D0000A417A717FF30A605FF30A7050030A805C8
:101D10000030AE000030AF000030B0000730A90046
:101D20002908B100932E231C962E972EA82E260844
:101D3000AE07270803110318270A0319A02EAF07BF
:101D4000280803110318280A0319A72EB007A82E84
:101D500001300310A50CA40CA30CFF3E031DA92EFB
:101D600001300310A60DA70DA80DFF3E031DB12ED7
:101D70000130B102031DBD2EBE2E932EBF2E0930A1
:101D8000A9002908B100C42E231CC72EC82ED92EA5
:101D90002608AE07270803110318270A0319D12EB6
:101DA000AF07280803110318280A0319D82EB00713
:101DB000D92E01300310A50CA40CA30CFF3E031D6B
:101DC000DA2E01300310B00CAF0CAE0CFF3E031D39
:101DD000E22E0130B102031DEE2EEF2EC42EF02EA6
:101DE0002E08F0002F08F1003008F2002D08A9009D
:101DF0002908F3003208AA002A08F4000A168A11FA
:101E000085270A128A15700883120313A30071082C
:101E1000A4007208A5000C2F0800831203132608E3
:101E2000AA002708AB002808AC002908AD0006303E
:101E30000310AA0DAB0DAC0DAD0DFF3E031D182F09
:101E40002D08F3002C08F2002B08F1002A08F000FE
:101E50000030AE002D30AF003130B0000130B100A5
:101E60002608B2002708B3002808B4002908B500E6
:101E700006300310B20DB30DB40DB50DFF3E031DBA
:101E8000392FB209B309B409B509B20A0319B30A63
:101E90000319B40A0319B50A3208AE073308031848
:101EA000330F532F542FAF0734080318340F592F13
:101EB0005A2FB00735080318350AB1073108F70063
:101EC0003008F6002F08F5002E08F4000A128A15D3
:101ED0001A230A128A157108FA01FA077008F90123
:101EE000F90701307A02003003197902031C792FB7
:101EF0007A2FE22F831203132608AA002708AB00CB
:101F00002808AC002908AD0004300310AA0DAB0D61
:101F1000AC0DAD0DFF3E031D852F2D08F3002C08E1
:101F2000F2002B08F1002A08F0000030AE002D303E
:101F3000AF003130B0000130B1002608B2002708F0
:101F4000B3002808B4002908B50004300310B20D0E
:101F5000B30DB40DB50DFF3E031DA62FB209B30995
:101F6000B409B509B20A0319B30A0319B40A03196B
:101F7000B50A3208AE0733080318330FC02FC12F3C
:101F8000AF0734080318340FC62FC72FB007350822
:101F90000318350AB1073108F7003008F6002F089A
:101FA000F5002E08F4000A128A151A230A128A155F
:101FB0007108FA01FA077008F901F907831603138B
:101FC0001815E22F01307A02003003197902031844
:101FD000EA2FEB2FFF2F79088316031399001812AD
:101FE0008312031398178316031387170717831297
:101FF00003131816831603139816FF2FFF2F0800DC
:102462000030831203138C1A0130372A08006400EB
:102472008001840A0406031900340406392A412A19
:10248200831203138C1E462A472A412A482A1A0815
:102492004A2A08007A08790478040319512A522A30
:1024A200552A8030FA06552A562A08007E088A00E4
:1024B2007F0882000A168A1157220A168A118000A2
:1024C200840A04087D0603190034FF0A0319FE0A70
:1024D2005B2AF300F201731C6F2A702A752A7008B6
:1024E200F1007108F207752A0310F00D0310F30CC6
:1024F200F308031D7D2A7E2A6C2A7F2A7208812A0C
:102502000800F30083120313881273080A168A1153
:102512003C240A168A118312031388172130F20011
:102522007630F100F10B932AF20B932A64008312A6
:10253200031388130800F300831203138816730829
:102542000A168A113C240A168A1183120313881769
:102552001A30F200F830F100F10BAD2AF20BAD2A7D
:1025620064008312031388130800EE01EF01831342
:10257200BF308400D5300A168A1138220A168A1111
:102582008317C030FD001330FE006A30FF00903028
:1025920084000A168A115B220A168A1183010A161E
:1025A2008A117B2CF5007508013A031DD92ADA2A13
:1025B200E22A7408803E0A168A1182220A168A11B9
:1025C200F12A7508023A031DE72AE82AF12A74085B
:1025D200C03E0A168A1182220A168A11F12AF12AAB
:1025E2000800803083120313C2064308B300440874
:1025F200B4004508B5004008B6004108B7004208DB
:10260200B8000A128A1124230A168A1183120313AC
:102612003308C0003408C1003508C200102B08007E
:1026220083120313A201FC1F172B182B212BFB096A
:10263200FC09FB0A0319FC0AA2010314A20D212BB7
:102642007B08F0007C08F100F2018E30A000200827
:10265200F3002208A1002108F4000A168A11852736
:102662000A168A117008FB007108FC007208FD004E
:102672003A2B0800F5003E2B3E2B7508840083138D
:102682000008F2000130F007FF30700784000A12E0
:102692008A150A200A168A11FF3A013E7207F300D0
:1026A2007308F400F408031D572B582B632B75088D
:1026B20084000130F5078008031D602B612B3E2B3F
:1026C200632B632B7408F000F101F01BF103692BFB
:1026D200080034343034303430343234383437341F
:1026E2004434423446344134413434343034303466
:1026F2003034323438343934383433343434433483
:102702003434343430343034303432343834353490
:102712004334323443343134383434343034303462
:10272200303432343834363438343734343437345D
:1027320034348E30FC007C08FD00AD2B01300310D8
:10274200FB0CFA0CF90CF80CFF3E031DA02B013018
:10275200FC007C08FD07AD2BFF307B05031DB22B6F
:10276200B32B9F2BB42B7808F0007908F1007A087C
:10277200F2007D08FC007C08F300F4010A168A11BD
:1027820085270A168A117008F8007108F900720884
:10279200FA00CB2B0800F601F701E92B7608740743
:1027A200840075080318750A83120313FF000A12C6
:1027B2008A1500200A168A110A168A119C220A1604
:1027C2008A110130F6070318F70A0030F707E92BE0
:1027D20076087407840075080318750A83120313B8
:1027E200FF000A128A1500200A168A110038031DFA
:1027F200FB2BFC2BCF2BFD2B0800F301F4012C2C1F
:10280200F501F6017608803AFF00A7307F02031D2A
:102812000C2C10307502031C0F2C102C122C262CA1
:10282200262C0130F5070318F60A0030F607760861
:10283200803AFF00A7307F02031D212C1030750261
:10284200031C242C252C122C262C0130F3070318F0
:10285200F40A0030F4077408803AF2007108803AF2
:102862007202031D362C70087302031C392C3A2C99
:10287200012C3B2C0800F000701C402C412C452CF4
:10288200831203130614482C831203130610F01C40
:102892004B2C4C2C4E2C86144F2C8610701D522C17
:1028A200532C552C0615562C0611F01D592C5A2C5A
:1028B2005C2C86155D2C8611701E602C612C632C9D
:1028C2000616642C0612F01E672C682C6A2C8616DB
:1028D2006B2C8612701F6E2C6F2C712C0617722CAB
:1028E2000613F01F752C762C782C86177A2C8613FB
:1028F2007A2C08008316031386018801FF308700B3
:1029020083120313081308120A168A119F250A1646
:102912008A11003083120313A9000030A800253069
:10292200A7008030A6000A128A150D270A168A11FE
:102932000A128A15FC200A168A11F4010314F40DF6
:1029420001300A168A11D3220A168A117E30F40047
:102952008030F5000A168A11CC230A168A11B12C8E
:102962000A128A11D1250A168A11B12CB12C0A1227
:102972008A110028720871047004031DC12CC22C34
:10298200D22C73088400003083138000840A003044
:1029920080000030F0000030F1000030F200042D21
:1029A200042D72087F39F400F5010130FF00031095
:1029B200F40DF50DFF0BD82C7308840074088313F3
:1029C2008000840A75088000710D710D0139F400D0
:1029D200F5017308840074088004840A7508800471
:1029E2007308840082308007840F00080318000AED
:1029F200FF00FF307F0780008403720880393F3870
:102A0200F200F113042D0800FB00F701F801700831
:102A1200FF3EF90071080318013EFF3EFA00422D05
:102A220077087B07F2007208840083130008F30022
:102A3200F4017308F5007408F60079087B07F200C8
:102A4200720884000008F30077087B07F40074081A
:102A52008400730880007508F20079087B07F30090
:102A620073088400720880000130F7070318F80A1F
:102A72000030F807FF30F9070318FA0AFF30FA07A7
:102A8200422D7808803AF2007A08803A7202031DD9
:102A92004C2D79087702031C4F2D502D112D512DED
:102AA200080083120313A7018E30A4002408A60095
:102AB200A31F5C2D5D2D7B2DA009A109A209A309ED
:102AC200A00A0319A10A0319A20A0319A30AA7015A
:102AD2000314A70D7B2D7B2D01300310A30CA20C38
:102AE200A10CA00CFF3E031D6E2D0130A400240892
:102AF200A6077B2DFF302305031D802D812D6D2D13
:102B0200822D2008F0002108F1002208F200260898
:102B1200A4002408F3002708A5002508F4000A16DB
:102B22008A1185270A168A11700883120313A000DE
:102B32007108A1007208A2009E2D080000300A163A
:102B42008A113C240A168A11831203138812A330B5
:102B5200F5005530F400F40BAC2DF50BAC2D3030F4
:102B62000A168A1182220A168A112130F50076305D
:102B7200F400F40BBA2DF50BBA2D640030300A16AE
:102B82008A1182220A168A116230F5006530F40039
:102B9200F40BC92DF50BC92DCE2D30300A168A1132
:102BA20082220A168A1138300A168A1182220A16DD
:102BB2008A110C300A168A1182220A168A110130F1
:102BC2000A168A1182220A168A1106300A168A11F8
:102BD20082220A168A110800831603134508013E51
:102BE200FB0046080318013E003EFC000A168A114B
:102BF20011230A168A117B0883160313A8007C0886
:102C0200A9007D08AA00D33083120313ED006D08DA
:102C120083160313AB000030AC000030AD000A1283
:102C22008A11EA210A168A11F4010314F40D013003
:102C32000A168A11D3220A168A11CF30F400803084
:102C4200F5000A168A11CC230A168A11D330F40031
:102C52000030F5000A168A11CC230A168A11F401F3
:102C62000314F40D02300A168A11D3220A168A11AD
:102C7200D830F4008030F5000A168A11CC230A16E7
:102C82008A116430F0000030F1000A168A11FE2326
:102C92000A168A110800831603134508013EFB0039
:102CA20046080318013E003EFC000A168A11112351
:102CB2000A168A117B0883160313A8007C08A90050
:102CC2007D08AA00D33083120313ED006D0883162A
:102CD2000313AB000030AC000030AD000A128A11C1
:102CE200EA210A168A11F4010314F40D01300A16BE
:102CF2008A11D3220A168A11CF30F4008030F500EF
:102D02000A168A11CC230A168A11D330F400003035
:102D1200F5000A168A11CC230A168A11F40103144B
:102D2200F40D02300A168A11D3220A168A11E130F2
:102D3200F4008030F5000A168A11CC230A168A1193
:102D42006430F0000030F1000A168A11FE230A16E0
:102D52008A110800F601F31FAF2EB02EB92EF20928
:102D6200F309F20A0319F30AF6010314F60DB92E58
:102D7200F11FBC2EBD2EC32EF009F109F00A031972
:102D8200F10AC32E710870040319C82EC92EFF2E32
:102D9200F5010314F50DD92E01300310F00DF10DDC
:102DA200FF3E031DCE2E0130F4007408F507D92E24
:102DB200F11FDC2EDD2ECD2EDF2EDF2E71087302E9
:102DC200031DE52E70087202031CE82EE92EF02E78
:102DD2007008F2027108031CF303F302F02E0130B3
:102DE2000310F10CF00CFF3E031DF12E0130F50231
:102DF200031DFC2EFD2EDF2EFF2EFF2E7608031D57
:102E0200032F092FF209F309F20A0319F30A092F12
:102E12007308F101F1077208F001F007102F0800A2
:102E2200F601F11F152F162F1F2FF009F109F00AD5
:102E32000319F10AF6010314F60D1F2FF31F222FB7
:102E4200232F2D2FF209F309F20A0319F30A013095
:102E5200F4007408F6062D2FF701F80171087004CA
:102E62000319342F352F732FF5010314F50D452F58
:102E720001300310F00DF10DFF3E031D3A2F01301A
:102E8200F4007408F507452FF11F482F492F392FF9
:102E92004B2F4B2F01300310F70DF80DFF3E031D92
:102EA2004C2F71087302031D582F70087202031C05
:102EB2005B2F5C2F642F7008F2027108031CF3036E
:102EC200F3027714642F01300310F10CF00CFF3E73
:102ED200031D652F0130F502031D702F712F4B2F3B
:102EE200732F732F7608031D772F7D2FF709F809AB
:102EF200F70A0319F80A7D2F7808F101F10777081C
:102F0200F001F007842F08007308031D892F912F09
:102F1200720871047004031D8F2F902FA72F912F19
:102F22000030F0000030F1000030F200FF2FFF2FE0
:102F3200A72F0130F5007508F30701300310F20CDA
:102F4200F10CF00CFF3E031D9F2FA72FFE307205E0
:102F5200031DAC2FAD2F9A2FC52FC52F0130F500C1
:102F62007508F3070130F007003003180130F1074C
:102F7200003003180130F20701300310F20CF10C9B
:102F8200F00CFF3E031DBE2FFF307205031DCA2F3A
:102F9200CB2FAF2FD82FD82F0130F30201300310DF
:102FA200F00DF10DF20DFF3E031DD02FD82FF11FB2
:102FB200DB2FDC2FCD2F7318DF2FE02FE62FFF3012
:102FC200F0057F30F105FF30F2050310F30C7308B2
:102FD200F500F601F70110300310F50DF60DF70DAF
:102FE200FF3E031DED2F7508F0047608F104770803
:0E2FF200F2047408031DFE2FFF2FF2170800D3
:02400E003AFF77
:00000001FF
